{
  "_format": "hh-sol-artifact-1",
  "contractName": "Juniper",
  "sourceName": "contracts/Juniper.sol",
  "abi": [
    {
      "inputs": [],
      "stateMutability": "nonpayable",
      "type": "constructor"
    },
    {
      "anonymous": false,
      "inputs": [
        {
          "indexed": false,
          "internalType": "string",
          "name": "name",
          "type": "string"
        },
        {
          "indexed": false,
          "internalType": "uint256",
          "name": "cost",
          "type": "uint256"
        },
        {
          "indexed": false,
          "internalType": "uint256",
          "name": "stock",
          "type": "uint256"
        }
      ],
      "name": "ItemListed",
      "type": "event"
    },
    {
      "anonymous": false,
      "inputs": [
        {
          "indexed": false,
          "internalType": "address",
          "name": "buyer",
          "type": "address"
        },
        {
          "indexed": false,
          "internalType": "uint256",
          "name": "orderId",
          "type": "uint256"
        },
        {
          "indexed": false,
          "internalType": "uint256",
          "name": "itemId",
          "type": "uint256"
        }
      ],
      "name": "ItemPurchased",
      "type": "event"
    },
    {
      "inputs": [
        {
          "internalType": "uint256",
          "name": "_id",
          "type": "uint256"
        }
      ],
      "name": "buy",
      "outputs": [],
      "stateMutability": "payable",
      "type": "function"
    },
    {
      "inputs": [
        {
          "internalType": "uint256",
          "name": "",
          "type": "uint256"
        }
      ],
      "name": "items",
      "outputs": [
        {
          "internalType": "uint256",
          "name": "id",
          "type": "uint256"
        },
        {
          "internalType": "string",
          "name": "name",
          "type": "string"
        },
        {
          "internalType": "string",
          "name": "category",
          "type": "string"
        },
        {
          "internalType": "string",
          "name": "vendor",
          "type": "string"
        },
        {
          "internalType": "string",
          "name": "color",
          "type": "string"
        },
        {
          "internalType": "string",
          "name": "image",
          "type": "string"
        },
        {
          "internalType": "uint256",
          "name": "cost",
          "type": "uint256"
        },
        {
          "internalType": "uint256",
          "name": "rating",
          "type": "uint256"
        },
        {
          "internalType": "uint256",
          "name": "stock",
          "type": "uint256"
        },
        {
          "internalType": "string",
          "name": "size",
          "type": "string"
        }
      ],
      "stateMutability": "view",
      "type": "function"
    },
    {
      "inputs": [
        {
          "internalType": "uint256",
          "name": "_id",
          "type": "uint256"
        },
        {
          "internalType": "string",
          "name": "_name",
          "type": "string"
        },
        {
          "internalType": "string",
          "name": "_category",
          "type": "string"
        },
        {
          "internalType": "string",
          "name": "_vendor",
          "type": "string"
        },
        {
          "internalType": "string",
          "name": "_color",
          "type": "string"
        },
        {
          "internalType": "string",
          "name": "_image",
          "type": "string"
        },
        {
          "internalType": "uint256",
          "name": "_cost",
          "type": "uint256"
        },
        {
          "internalType": "uint256",
          "name": "_rating",
          "type": "uint256"
        },
        {
          "internalType": "uint256",
          "name": "_stock",
          "type": "uint256"
        },
        {
          "internalType": "string",
          "name": "_size",
          "type": "string"
        }
      ],
      "name": "list",
      "outputs": [],
      "stateMutability": "nonpayable",
      "type": "function"
    },
    {
      "inputs": [
        {
          "internalType": "address",
          "name": "",
          "type": "address"
        }
      ],
      "name": "orderCount",
      "outputs": [
        {
          "internalType": "uint256",
          "name": "",
          "type": "uint256"
        }
      ],
      "stateMutability": "view",
      "type": "function"
    },
    {
      "inputs": [
        {
          "internalType": "address",
          "name": "",
          "type": "address"
        },
        {
          "internalType": "uint256",
          "name": "",
          "type": "uint256"
        }
      ],
      "name": "orders",
      "outputs": [
        {
          "internalType": "uint256",
          "name": "time",
          "type": "uint256"
        },
        {
          "components": [
            {
              "internalType": "uint256",
              "name": "id",
              "type": "uint256"
            },
            {
              "internalType": "string",
              "name": "name",
              "type": "string"
            },
            {
              "internalType": "string",
              "name": "category",
              "type": "string"
            },
            {
              "internalType": "string",
              "name": "vendor",
              "type": "string"
            },
            {
              "internalType": "string",
              "name": "color",
              "type": "string"
            },
            {
              "internalType": "string",
              "name": "image",
              "type": "string"
            },
            {
              "internalType": "uint256",
              "name": "cost",
              "type": "uint256"
            },
            {
              "internalType": "uint256",
              "name": "rating",
              "type": "uint256"
            },
            {
              "internalType": "uint256",
              "name": "stock",
              "type": "uint256"
            },
            {
              "internalType": "string",
              "name": "size",
              "type": "string"
            }
          ],
          "internalType": "struct Juniper.Item",
          "name": "item",
          "type": "tuple"
        }
      ],
      "stateMutability": "view",
      "type": "function"
    },
    {
      "inputs": [],
      "name": "owner",
      "outputs": [
        {
          "internalType": "address",
          "name": "",
          "type": "address"
        }
      ],
      "stateMutability": "view",
      "type": "function"
    },
    {
      "inputs": [],
      "name": "withdraw",
      "outputs": [],
      "stateMutability": "nonpayable",
      "type": "function"
    }
  ],
  "bytecode": "0x608060405234801561001057600080fd5b50336000806101000a81548173ffffffffffffffffffffffffffffffffffffffff021916908373ffffffffffffffffffffffffffffffffffffffff160217905550611dc8806100606000396000f3fe6080604052600436106100705760003560e01c80638da5cb5b1161004e5780638da5cb5b14610107578063bfb231d214610132578063d96a094a14610178578063f8dcc7251461019457610070565b80633ccfd60b14610075578063713d856b1461008c578063793b8c6d146100c9575b600080fd5b34801561008157600080fd5b5061008a6101bd565b005b34801561009857600080fd5b506100b360048036038101906100ae9190611411565b61031b565b6040516100c09190611457565b60405180910390f35b3480156100d557600080fd5b506100f060048036038101906100eb919061149e565b610333565b6040516100fe929190611683565b60405180910390f35b34801561011357600080fd5b5061011c610703565b60405161012991906116c2565b60405180910390f35b34801561013e57600080fd5b50610159600480360381019061015491906116dd565b610727565b60405161016f9a99989796959493929190611754565b60405180910390f35b610192600480360381019061018d91906116dd565b610aab565b005b3480156101a057600080fd5b506101bb60048036038101906101b6919061194f565b6110ed565b005b60008054906101000a900473ffffffffffffffffffffffffffffffffffffffff1673ffffffffffffffffffffffffffffffffffffffff163373ffffffffffffffffffffffffffffffffffffffff161461024b576040517f08c379a000000000000000000000000000000000000000000000000000000000815260040161024290611b48565b60405180910390fd5b60008060009054906101000a900473ffffffffffffffffffffffffffffffffffffffff1673ffffffffffffffffffffffffffffffffffffffff164760405161029290611b99565b60006040518083038185875af1925050503d80600081146102cf576040519150601f19603f3d011682016040523d82523d6000602084013e6102d4565b606091505b5050905080610318576040517f08c379a000000000000000000000000000000000000000000000000000000000815260040161030f90611bfa565b60405180910390fd5b50565b60036020528060005260406000206000915090505481565b60026020528160005260406000206020528060005260406000206000915091505080600001549080600101604051806101400160405290816000820154815260200160018201805461038490611c49565b80601f01602080910402602001604051908101604052809291908181526020018280546103b090611c49565b80156103fd5780601f106103d2576101008083540402835291602001916103fd565b820191906000526020600020905b8154815290600101906020018083116103e057829003601f168201915b5050505050815260200160028201805461041690611c49565b80601f016020809104026020016040519081016040528092919081815260200182805461044290611c49565b801561048f5780601f106104645761010080835404028352916020019161048f565b820191906000526020600020905b81548152906001019060200180831161047257829003601f168201915b505050505081526020016003820180546104a890611c49565b80601f01602080910402602001604051908101604052809291908181526020018280546104d490611c49565b80156105215780601f106104f657610100808354040283529160200191610521565b820191906000526020600020905b81548152906001019060200180831161050457829003601f168201915b5050505050815260200160048201805461053a90611c49565b80601f016020809104026020016040519081016040528092919081815260200182805461056690611c49565b80156105b35780601f10610588576101008083540402835291602001916105b3565b820191906000526020600020905b81548152906001019060200180831161059657829003601f168201915b505050505081526020016005820180546105cc90611c49565b80601f01602080910402602001604051908101604052809291908181526020018280546105f890611c49565b80156106455780601f1061061a57610100808354040283529160200191610645565b820191906000526020600020905b81548152906001019060200180831161062857829003601f168201915b5050505050815260200160068201548152602001600782015481526020016008820154815260200160098201805461067c90611c49565b80601f01602080910402602001604051908101604052809291908181526020018280546106a890611c49565b80156106f55780601f106106ca576101008083540402835291602001916106f5565b820191906000526020600020905b8154815290600101906020018083116106d857829003601f168201915b505050505081525050905082565b60008054906101000a900473ffffffffffffffffffffffffffffffffffffffff1681565b600160205280600052604060002060009150905080600001549080600101805461075090611c49565b80601f016020809104026020016040519081016040528092919081815260200182805461077c90611c49565b80156107c95780601f1061079e576101008083540402835291602001916107c9565b820191906000526020600020905b8154815290600101906020018083116107ac57829003601f168201915b5050505050908060020180546107de90611c49565b80601f016020809104026020016040519081016040528092919081815260200182805461080a90611c49565b80156108575780601f1061082c57610100808354040283529160200191610857565b820191906000526020600020905b81548152906001019060200180831161083a57829003601f168201915b50505050509080600301805461086c90611c49565b80601f016020809104026020016040519081016040528092919081815260200182805461089890611c49565b80156108e55780601f106108ba576101008083540402835291602001916108e5565b820191906000526020600020905b8154815290600101906020018083116108c857829003601f168201915b5050505050908060040180546108fa90611c49565b80601f016020809104026020016040519081016040528092919081815260200182805461092690611c49565b80156109735780601f1061094857610100808354040283529160200191610973565b820191906000526020600020905b81548152906001019060200180831161095657829003601f168201915b50505050509080600501805461098890611c49565b80601f01602080910402602001604051908101604052809291908181526020018280546109b490611c49565b8015610a015780601f106109d657610100808354040283529160200191610a01565b820191906000526020600020905b8154815290600101906020018083116109e457829003601f168201915b505050505090806006015490806007015490806008015490806009018054610a2890611c49565b80601f0160208091040260200160405190810160405280929190818152602001828054610a5490611c49565b8015610aa15780601f10610a7657610100808354040283529160200191610aa1565b820191906000526020600020905b815481529060010190602001808311610a8457829003601f168201915b505050505090508a565b600060016000838152602001908152602001600020905060006040518060400160405280428152602001836040518061014001604052908160008201548152602001600182018054610afc90611c49565b80601f0160208091040260200160405190810160405280929190818152602001828054610b2890611c49565b8015610b755780601f10610b4a57610100808354040283529160200191610b75565b820191906000526020600020905b815481529060010190602001808311610b5857829003601f168201915b50505050508152602001600282018054610b8e90611c49565b80601f0160208091040260200160405190810160405280929190818152602001828054610bba90611c49565b8015610c075780601f10610bdc57610100808354040283529160200191610c07565b820191906000526020600020905b815481529060010190602001808311610bea57829003601f168201915b50505050508152602001600382018054610c2090611c49565b80601f0160208091040260200160405190810160405280929190818152602001828054610c4c90611c49565b8015610c995780601f10610c6e57610100808354040283529160200191610c99565b820191906000526020600020905b815481529060010190602001808311610c7c57829003601f168201915b50505050508152602001600482018054610cb290611c49565b80601f0160208091040260200160405190810160405280929190818152602001828054610cde90611c49565b8015610d2b5780601f10610d0057610100808354040283529160200191610d2b565b820191906000526020600020905b815481529060010190602001808311610d0e57829003601f168201915b50505050508152602001600582018054610d4490611c49565b80601f0160208091040260200160405190810160405280929190818152602001828054610d7090611c49565b8015610dbd5780601f10610d9257610100808354040283529160200191610dbd565b820191906000526020600020905b815481529060010190602001808311610da057829003601f168201915b50505050508152602001600682015481526020016007820154815260200160088201548152602001600982018054610df490611c49565b80601f0160208091040260200160405190810160405280929190818152602001828054610e2090611c49565b8015610e6d5780601f10610e4257610100808354040283529160200191610e6d565b820191906000526020600020905b815481529060010190602001808311610e5057829003601f168201915b5050505050815250508152509050600360003373ffffffffffffffffffffffffffffffffffffffff1673ffffffffffffffffffffffffffffffffffffffff1681526020019081526020016000206000815480929190610ecb90611caa565b919050555080600260003373ffffffffffffffffffffffffffffffffffffffff1673ffffffffffffffffffffffffffffffffffffffff1681526020019081526020016000206000600360003373ffffffffffffffffffffffffffffffffffffffff1673ffffffffffffffffffffffffffffffffffffffff16815260200190815260200160002054815260200190815260200160002060008201518160000155602082015181600101600082015181600001556020820151816001019080519060200190610f999291906112fc565b506040820151816002019080519060200190610fb69291906112fc565b506060820151816003019080519060200190610fd39291906112fc565b506080820151816004019080519060200190610ff09291906112fc565b5060a082015181600501908051906020019061100d9291906112fc565b5060c0820151816006015560e08201518160070155610100820151816008015561012082015181600901908051906020019061104a9291906112fc565b50505090505081600801600081548092919061106590611cf3565b91905055507f1452773cf753d0d7c71ed9990f7c7e2bdde4a2d08d187b3647953877e400488d33600360003373ffffffffffffffffffffffffffffffffffffffff1673ffffffffffffffffffffffffffffffffffffffff1681526020019081526020016000205484600001546040516110e093929190611d1d565b60405180910390a1505050565b60008054906101000a900473ffffffffffffffffffffffffffffffffffffffff1673ffffffffffffffffffffffffffffffffffffffff163373ffffffffffffffffffffffffffffffffffffffff161461117b576040517f08c379a000000000000000000000000000000000000000000000000000000000815260040161117290611b48565b60405180910390fd5b60006040518061014001604052808c81526020018b81526020018a815260200189815260200188815260200187815260200186815260200185815260200184815260200183815250905080600160008d81526020019081526020016000206000820151816000015560208201518160010190805190602001906111ff9291906112fc565b50604082015181600201908051906020019061121c9291906112fc565b5060608201518160030190805190602001906112399291906112fc565b5060808201518160040190805190602001906112569291906112fc565b5060a08201518160050190805190602001906112739291906112fc565b5060c0820151816006015560e0820151816007015561010082015181600801556101208201518160090190805190602001906112b09291906112fc565b509050507fdec46a8bd26e83b75c51af583d7e4599ca18eeac7e6dfbea1b1de3a983cfcb678a86856040516112e793929190611d54565b60405180910390a15050505050505050505050565b82805461130890611c49565b90600052602060002090601f01602090048101928261132a5760008555611371565b82601f1061134357805160ff1916838001178555611371565b82800160010185558215611371579182015b82811115611370578251825591602001919060010190611355565b5b50905061137e9190611382565b5090565b5b8082111561139b576000816000905550600101611383565b5090565b6000604051905090565b600080fd5b600080fd5b600073ffffffffffffffffffffffffffffffffffffffff82169050919050565b60006113de826113b3565b9050919050565b6113ee816113d3565b81146113f957600080fd5b50565b60008135905061140b816113e5565b92915050565b600060208284031215611427576114266113a9565b5b6000611435848285016113fc565b91505092915050565b6000819050919050565b6114518161143e565b82525050565b600060208201905061146c6000830184611448565b92915050565b61147b8161143e565b811461148657600080fd5b50565b60008135905061149881611472565b92915050565b600080604083850312156114b5576114b46113a9565b5b60006114c3858286016113fc565b92505060206114d485828601611489565b9150509250929050565b6114e78161143e565b82525050565b600081519050919050565b600082825260208201905092915050565b60005b8381101561152757808201518184015260208101905061150c565b83811115611536576000848401525b50505050565b6000601f19601f8301169050919050565b6000611558826114ed565b61156281856114f8565b9350611572818560208601611509565b61157b8161153c565b840191505092915050565b60006101408301600083015161159f60008601826114de565b50602083015184820360208601526115b7828261154d565b915050604083015184820360408601526115d1828261154d565b915050606083015184820360608601526115eb828261154d565b91505060808301518482036080860152611605828261154d565b91505060a083015184820360a086015261161f828261154d565b91505060c083015161163460c08601826114de565b5060e083015161164760e08601826114de565b5061010083015161165c6101008601826114de565b50610120830151848203610120860152611676828261154d565b9150508091505092915050565b60006040820190506116986000830185611448565b81810360208301526116aa8184611586565b90509392505050565b6116bc816113d3565b82525050565b60006020820190506116d760008301846116b3565b92915050565b6000602082840312156116f3576116f26113a9565b5b600061170184828501611489565b91505092915050565b600082825260208201905092915050565b6000611726826114ed565b611730818561170a565b9350611740818560208601611509565b6117498161153c565b840191505092915050565b60006101408201905061176a600083018d611448565b818103602083015261177c818c61171b565b90508181036040830152611790818b61171b565b905081810360608301526117a4818a61171b565b905081810360808301526117b8818961171b565b905081810360a08301526117cc818861171b565b90506117db60c0830187611448565b6117e860e0830186611448565b6117f6610100830185611448565b818103610120830152611809818461171b565b90509b9a5050505050505050505050565b600080fd5b600080fd5b7f4e487b7100000000000000000000000000000000000000000000000000000000600052604160045260246000fd5b61185c8261153c565b810181811067ffffffffffffffff8211171561187b5761187a611824565b5b80604052505050565b600061188e61139f565b905061189a8282611853565b919050565b600067ffffffffffffffff8211156118ba576118b9611824565b5b6118c38261153c565b9050602081019050919050565b82818337600083830152505050565b60006118f26118ed8461189f565b611884565b90508281526020810184848401111561190e5761190d61181f565b5b6119198482856118d0565b509392505050565b600082601f8301126119365761193561181a565b5b81356119468482602086016118df565b91505092915050565b6000806000806000806000806000806101408b8d031215611973576119726113a9565b5b60006119818d828e01611489565b9a505060208b013567ffffffffffffffff8111156119a2576119a16113ae565b5b6119ae8d828e01611921565b99505060408b013567ffffffffffffffff8111156119cf576119ce6113ae565b5b6119db8d828e01611921565b98505060608b013567ffffffffffffffff8111156119fc576119fb6113ae565b5b611a088d828e01611921565b97505060808b013567ffffffffffffffff811115611a2957611a286113ae565b5b611a358d828e01611921565b96505060a08b013567ffffffffffffffff811115611a5657611a556113ae565b5b611a628d828e01611921565b95505060c0611a738d828e01611489565b94505060e0611a848d828e01611489565b935050610100611a968d828e01611489565b9250506101208b013567ffffffffffffffff811115611ab857611ab76113ae565b5b611ac48d828e01611921565b9150509295989b9194979a5092959850565b7f4f6e6c7920746865206f776e65722063616e2063616c6c20746869732066756e60008201527f6374696f6e000000000000000000000000000000000000000000000000000000602082015250565b6000611b3260258361170a565b9150611b3d82611ad6565b604082019050919050565b60006020820190508181036000830152611b6181611b25565b9050919050565b600081905092915050565b50565b6000611b83600083611b68565b9150611b8e82611b73565b600082019050919050565b6000611ba482611b76565b9150819050919050565b7f5769746864726177616c206661696c6564000000000000000000000000000000600082015250565b6000611be460118361170a565b9150611bef82611bae565b602082019050919050565b60006020820190508181036000830152611c1381611bd7565b9050919050565b7f4e487b7100000000000000000000000000000000000000000000000000000000600052602260045260246000fd5b60006002820490506001821680611c6157607f821691505b60208210811415611c7557611c74611c1a565b5b50919050565b7f4e487b7100000000000000000000000000000000000000000000000000000000600052601160045260246000fd5b6000611cb58261143e565b91507fffffffffffffffffffffffffffffffffffffffffffffffffffffffffffffffff821415611ce857611ce7611c7b565b5b600182019050919050565b6000611cfe8261143e565b91506000821415611d1257611d11611c7b565b5b600182039050919050565b6000606082019050611d3260008301866116b3565b611d3f6020830185611448565b611d4c6040830184611448565b949350505050565b60006060820190508181036000830152611d6e818661171b565b9050611d7d6020830185611448565b611d8a6040830184611448565b94935050505056fea26469706673582212208dc448614a5b590c84aa26d7e7e4237ba4edc5f219f533c22729e945b365474a64736f6c63430008090033",
  "linkReferences": {},
  "deployedLinkReferences": {}
}