{
  "_format": "hh-sol-artifact-1",
  "contractName": "Juniper",
  "sourceName": "contracts/Juniper.sol",
  "abi": [
    {
      "inputs": [],
      "stateMutability": "nonpayable",
      "type": "constructor"
    },
    {
      "anonymous": false,
      "inputs": [
        {
          "indexed": false,
          "internalType": "string",
          "name": "name",
          "type": "string"
        },
        {
          "indexed": false,
          "internalType": "uint256",
          "name": "cost",
          "type": "uint256"
        },
        {
          "indexed": false,
          "internalType": "uint256",
          "name": "stock",
          "type": "uint256"
        }
      ],
      "name": "ItemListed",
      "type": "event"
    },
    {
      "anonymous": false,
      "inputs": [
        {
          "indexed": false,
          "internalType": "address",
          "name": "buyer",
          "type": "address"
        },
        {
          "indexed": false,
          "internalType": "uint256",
          "name": "orderId",
          "type": "uint256"
        },
        {
          "indexed": false,
          "internalType": "uint256",
          "name": "itemId",
          "type": "uint256"
        }
      ],
      "name": "ItemPurchased",
      "type": "event"
    },
    {
      "inputs": [
        {
          "internalType": "uint256",
          "name": "_id",
          "type": "uint256"
        }
      ],
      "name": "buy",
      "outputs": [],
      "stateMutability": "payable",
      "type": "function"
    },
    {
      "inputs": [
        {
          "internalType": "uint256",
          "name": "",
          "type": "uint256"
        }
      ],
      "name": "items",
      "outputs": [
        {
          "internalType": "uint256",
          "name": "id",
          "type": "uint256"
        },
        {
          "internalType": "string",
          "name": "name",
          "type": "string"
        },
        {
          "internalType": "string",
          "name": "category",
          "type": "string"
        },
        {
          "internalType": "string",
          "name": "vendor",
          "type": "string"
        },
        {
          "internalType": "string",
          "name": "color",
          "type": "string"
        },
        {
          "internalType": "string",
          "name": "image",
          "type": "string"
        },
        {
          "internalType": "uint256",
          "name": "cost",
          "type": "uint256"
        },
        {
          "internalType": "uint256",
          "name": "rating",
          "type": "uint256"
        },
        {
          "internalType": "uint256",
          "name": "stock",
          "type": "uint256"
        },
        {
          "internalType": "string",
          "name": "size",
          "type": "string"
        }
      ],
      "stateMutability": "view",
      "type": "function"
    },
    {
      "inputs": [
        {
          "internalType": "uint256",
          "name": "_id",
          "type": "uint256"
        },
        {
          "internalType": "string",
          "name": "_name",
          "type": "string"
        },
        {
          "internalType": "string",
          "name": "_category",
          "type": "string"
        },
        {
          "internalType": "string",
          "name": "_vendor",
          "type": "string"
        },
        {
          "internalType": "string",
          "name": "_color",
          "type": "string"
        },
        {
          "internalType": "string",
          "name": "_image",
          "type": "string"
        },
        {
          "internalType": "uint256",
          "name": "_cost",
          "type": "uint256"
        },
        {
          "internalType": "uint256",
          "name": "_rating",
          "type": "uint256"
        },
        {
          "internalType": "uint256",
          "name": "_stock",
          "type": "uint256"
        },
        {
          "internalType": "string",
          "name": "_size",
          "type": "string"
        }
      ],
      "name": "list",
      "outputs": [],
      "stateMutability": "nonpayable",
      "type": "function"
    },
    {
      "inputs": [
        {
          "internalType": "address",
          "name": "",
          "type": "address"
        }
      ],
      "name": "orderCount",
      "outputs": [
        {
          "internalType": "uint256",
          "name": "",
          "type": "uint256"
        }
      ],
      "stateMutability": "view",
      "type": "function"
    },
    {
      "inputs": [
        {
          "internalType": "address",
          "name": "",
          "type": "address"
        },
        {
          "internalType": "uint256",
          "name": "",
          "type": "uint256"
        }
      ],
      "name": "orders",
      "outputs": [
        {
          "internalType": "uint256",
          "name": "time",
          "type": "uint256"
        },
        {
          "components": [
            {
              "internalType": "uint256",
              "name": "id",
              "type": "uint256"
            },
            {
              "internalType": "string",
              "name": "name",
              "type": "string"
            },
            {
              "internalType": "string",
              "name": "category",
              "type": "string"
            },
            {
              "internalType": "string",
              "name": "vendor",
              "type": "string"
            },
            {
              "internalType": "string",
              "name": "color",
              "type": "string"
            },
            {
              "internalType": "string",
              "name": "image",
              "type": "string"
            },
            {
              "internalType": "uint256",
              "name": "cost",
              "type": "uint256"
            },
            {
              "internalType": "uint256",
              "name": "rating",
              "type": "uint256"
            },
            {
              "internalType": "uint256",
              "name": "stock",
              "type": "uint256"
            },
            {
              "internalType": "string",
              "name": "size",
              "type": "string"
            }
          ],
          "internalType": "struct Juniper.Item",
          "name": "item",
          "type": "tuple"
        }
      ],
      "stateMutability": "view",
      "type": "function"
    },
    {
      "inputs": [],
      "name": "owner",
      "outputs": [
        {
          "internalType": "address",
          "name": "",
          "type": "address"
        }
      ],
      "stateMutability": "view",
      "type": "function"
    },
    {
      "inputs": [],
      "name": "withdraw",
      "outputs": [],
      "stateMutability": "nonpayable",
      "type": "function"
    }
  ],
  "bytecode": "0x608060405234801561001057600080fd5b50336000806101000a81548173ffffffffffffffffffffffffffffffffffffffff021916908373ffffffffffffffffffffffffffffffffffffffff160217905550611f54806100606000396000f3fe6080604052600436106100705760003560e01c80638da5cb5b1161004e5780638da5cb5b14610107578063bfb231d214610132578063d96a094a14610178578063f8dcc7251461019457610070565b80633ccfd60b14610075578063713d856b1461008c578063793b8c6d146100c9575b600080fd5b34801561008157600080fd5b5061008a6101bd565b005b34801561009857600080fd5b506100b360048036038101906100ae919061149f565b61031b565b6040516100c091906114e5565b60405180910390f35b3480156100d557600080fd5b506100f060048036038101906100eb919061152c565b610333565b6040516100fe929190611711565b60405180910390f35b34801561011357600080fd5b5061011c610703565b6040516101299190611750565b60405180910390f35b34801561013e57600080fd5b506101596004803603810190610154919061176b565b610727565b60405161016f9a999897969594939291906117e2565b60405180910390f35b610192600480360381019061018d919061176b565b610aab565b005b3480156101a057600080fd5b506101bb60048036038101906101b691906119dd565b61117b565b005b60008054906101000a900473ffffffffffffffffffffffffffffffffffffffff1673ffffffffffffffffffffffffffffffffffffffff163373ffffffffffffffffffffffffffffffffffffffff161461024b576040517f08c379a000000000000000000000000000000000000000000000000000000000815260040161024290611bd6565b60405180910390fd5b60008060009054906101000a900473ffffffffffffffffffffffffffffffffffffffff1673ffffffffffffffffffffffffffffffffffffffff164760405161029290611c27565b60006040518083038185875af1925050503d80600081146102cf576040519150601f19603f3d011682016040523d82523d6000602084013e6102d4565b606091505b5050905080610318576040517f08c379a000000000000000000000000000000000000000000000000000000000815260040161030f90611c88565b60405180910390fd5b50565b60036020528060005260406000206000915090505481565b60026020528160005260406000206020528060005260406000206000915091505080600001549080600101604051806101400160405290816000820154815260200160018201805461038490611cd7565b80601f01602080910402602001604051908101604052809291908181526020018280546103b090611cd7565b80156103fd5780601f106103d2576101008083540402835291602001916103fd565b820191906000526020600020905b8154815290600101906020018083116103e057829003601f168201915b5050505050815260200160028201805461041690611cd7565b80601f016020809104026020016040519081016040528092919081815260200182805461044290611cd7565b801561048f5780601f106104645761010080835404028352916020019161048f565b820191906000526020600020905b81548152906001019060200180831161047257829003601f168201915b505050505081526020016003820180546104a890611cd7565b80601f01602080910402602001604051908101604052809291908181526020018280546104d490611cd7565b80156105215780601f106104f657610100808354040283529160200191610521565b820191906000526020600020905b81548152906001019060200180831161050457829003601f168201915b5050505050815260200160048201805461053a90611cd7565b80601f016020809104026020016040519081016040528092919081815260200182805461056690611cd7565b80156105b35780601f10610588576101008083540402835291602001916105b3565b820191906000526020600020905b81548152906001019060200180831161059657829003601f168201915b505050505081526020016005820180546105cc90611cd7565b80601f01602080910402602001604051908101604052809291908181526020018280546105f890611cd7565b80156106455780601f1061061a57610100808354040283529160200191610645565b820191906000526020600020905b81548152906001019060200180831161062857829003601f168201915b5050505050815260200160068201548152602001600782015481526020016008820154815260200160098201805461067c90611cd7565b80601f01602080910402602001604051908101604052809291908181526020018280546106a890611cd7565b80156106f55780601f106106ca576101008083540402835291602001916106f5565b820191906000526020600020905b8154815290600101906020018083116106d857829003601f168201915b505050505081525050905082565b60008054906101000a900473ffffffffffffffffffffffffffffffffffffffff1681565b600160205280600052604060002060009150905080600001549080600101805461075090611cd7565b80601f016020809104026020016040519081016040528092919081815260200182805461077c90611cd7565b80156107c95780601f1061079e576101008083540402835291602001916107c9565b820191906000526020600020905b8154815290600101906020018083116107ac57829003601f168201915b5050505050908060020180546107de90611cd7565b80601f016020809104026020016040519081016040528092919081815260200182805461080a90611cd7565b80156108575780601f1061082c57610100808354040283529160200191610857565b820191906000526020600020905b81548152906001019060200180831161083a57829003601f168201915b50505050509080600301805461086c90611cd7565b80601f016020809104026020016040519081016040528092919081815260200182805461089890611cd7565b80156108e55780601f106108ba576101008083540402835291602001916108e5565b820191906000526020600020905b8154815290600101906020018083116108c857829003601f168201915b5050505050908060040180546108fa90611cd7565b80601f016020809104026020016040519081016040528092919081815260200182805461092690611cd7565b80156109735780601f1061094857610100808354040283529160200191610973565b820191906000526020600020905b81548152906001019060200180831161095657829003601f168201915b50505050509080600501805461098890611cd7565b80601f01602080910402602001604051908101604052809291908181526020018280546109b490611cd7565b8015610a015780601f106109d657610100808354040283529160200191610a01565b820191906000526020600020905b8154815290600101906020018083116109e457829003601f168201915b505050505090806006015490806007015490806008015490806009018054610a2890611cd7565b80601f0160208091040260200160405190810160405280929190818152602001828054610a5490611cd7565b8015610aa15780601f10610a7657610100808354040283529160200191610aa1565b820191906000526020600020905b815481529060010190602001808311610a8457829003601f168201915b505050505090508a565b60006001600083815260200190815260200160002090508060060154341015610b09576040517f08c379a0000000000000000000000000000000000000000000000000000000008152600401610b0090611d7b565b60405180910390fd5b6000816008015411610b50576040517f08c379a0000000000000000000000000000000000000000000000000000000008152600401610b4790611de7565b60405180910390fd5b60006040518060400160405280428152602001836040518061014001604052908160008201548152602001600182018054610b8a90611cd7565b80601f0160208091040260200160405190810160405280929190818152602001828054610bb690611cd7565b8015610c035780601f10610bd857610100808354040283529160200191610c03565b820191906000526020600020905b815481529060010190602001808311610be657829003601f168201915b50505050508152602001600282018054610c1c90611cd7565b80601f0160208091040260200160405190810160405280929190818152602001828054610c4890611cd7565b8015610c955780601f10610c6a57610100808354040283529160200191610c95565b820191906000526020600020905b815481529060010190602001808311610c7857829003601f168201915b50505050508152602001600382018054610cae90611cd7565b80601f0160208091040260200160405190810160405280929190818152602001828054610cda90611cd7565b8015610d275780601f10610cfc57610100808354040283529160200191610d27565b820191906000526020600020905b815481529060010190602001808311610d0a57829003601f168201915b50505050508152602001600482018054610d4090611cd7565b80601f0160208091040260200160405190810160405280929190818152602001828054610d6c90611cd7565b8015610db95780601f10610d8e57610100808354040283529160200191610db9565b820191906000526020600020905b815481529060010190602001808311610d9c57829003601f168201915b50505050508152602001600582018054610dd290611cd7565b80601f0160208091040260200160405190810160405280929190818152602001828054610dfe90611cd7565b8015610e4b5780601f10610e2057610100808354040283529160200191610e4b565b820191906000526020600020905b815481529060010190602001808311610e2e57829003601f168201915b50505050508152602001600682015481526020016007820154815260200160088201548152602001600982018054610e8290611cd7565b80601f0160208091040260200160405190810160405280929190818152602001828054610eae90611cd7565b8015610efb5780601f10610ed057610100808354040283529160200191610efb565b820191906000526020600020905b815481529060010190602001808311610ede57829003601f168201915b5050505050815250508152509050600360003373ffffffffffffffffffffffffffffffffffffffff1673ffffffffffffffffffffffffffffffffffffffff1681526020019081526020016000206000815480929190610f5990611e36565b919050555080600260003373ffffffffffffffffffffffffffffffffffffffff1673ffffffffffffffffffffffffffffffffffffffff1681526020019081526020016000206000600360003373ffffffffffffffffffffffffffffffffffffffff1673ffffffffffffffffffffffffffffffffffffffff1681526020019081526020016000205481526020019081526020016000206000820151816000015560208201518160010160008201518160000155602082015181600101908051906020019061102792919061138a565b50604082015181600201908051906020019061104492919061138a565b50606082015181600301908051906020019061106192919061138a565b50608082015181600401908051906020019061107e92919061138a565b5060a082015181600501908051906020019061109b92919061138a565b5060c0820151816006015560e0820151816007015561010082015181600801556101208201518160090190805190602001906110d892919061138a565b5050509050508160080160008154809291906110f390611e7f565b91905055507f1452773cf753d0d7c71ed9990f7c7e2bdde4a2d08d187b3647953877e400488d33600360003373ffffffffffffffffffffffffffffffffffffffff1673ffffffffffffffffffffffffffffffffffffffff16815260200190815260200160002054846000015460405161116e93929190611ea9565b60405180910390a1505050565b60008054906101000a900473ffffffffffffffffffffffffffffffffffffffff1673ffffffffffffffffffffffffffffffffffffffff163373ffffffffffffffffffffffffffffffffffffffff1614611209576040517f08c379a000000000000000000000000000000000000000000000000000000000815260040161120090611bd6565b60405180910390fd5b60006040518061014001604052808c81526020018b81526020018a815260200189815260200188815260200187815260200186815260200185815260200184815260200183815250905080600160008d815260200190815260200160002060008201518160000155602082015181600101908051906020019061128d92919061138a565b5060408201518160020190805190602001906112aa92919061138a565b5060608201518160030190805190602001906112c792919061138a565b5060808201518160040190805190602001906112e492919061138a565b5060a082015181600501908051906020019061130192919061138a565b5060c0820151816006015560e08201518160070155610100820151816008015561012082015181600901908051906020019061133e92919061138a565b509050507fdec46a8bd26e83b75c51af583d7e4599ca18eeac7e6dfbea1b1de3a983cfcb678a868560405161137593929190611ee0565b60405180910390a15050505050505050505050565b82805461139690611cd7565b90600052602060002090601f0160209004810192826113b857600085556113ff565b82601f106113d157805160ff19168380011785556113ff565b828001600101855582156113ff579182015b828111156113fe5782518255916020019190600101906113e3565b5b50905061140c9190611410565b5090565b5b80821115611429576000816000905550600101611411565b5090565b6000604051905090565b600080fd5b600080fd5b600073ffffffffffffffffffffffffffffffffffffffff82169050919050565b600061146c82611441565b9050919050565b61147c81611461565b811461148757600080fd5b50565b60008135905061149981611473565b92915050565b6000602082840312156114b5576114b4611437565b5b60006114c38482850161148a565b91505092915050565b6000819050919050565b6114df816114cc565b82525050565b60006020820190506114fa60008301846114d6565b92915050565b611509816114cc565b811461151457600080fd5b50565b60008135905061152681611500565b92915050565b6000806040838503121561154357611542611437565b5b60006115518582860161148a565b925050602061156285828601611517565b9150509250929050565b611575816114cc565b82525050565b600081519050919050565b600082825260208201905092915050565b60005b838110156115b557808201518184015260208101905061159a565b838111156115c4576000848401525b50505050565b6000601f19601f8301169050919050565b60006115e68261157b565b6115f08185611586565b9350611600818560208601611597565b611609816115ca565b840191505092915050565b60006101408301600083015161162d600086018261156c565b506020830151848203602086015261164582826115db565b9150506040830151848203604086015261165f82826115db565b9150506060830151848203606086015261167982826115db565b9150506080830151848203608086015261169382826115db565b91505060a083015184820360a08601526116ad82826115db565b91505060c08301516116c260c086018261156c565b5060e08301516116d560e086018261156c565b506101008301516116ea61010086018261156c565b5061012083015184820361012086015261170482826115db565b9150508091505092915050565b600060408201905061172660008301856114d6565b81810360208301526117388184611614565b90509392505050565b61174a81611461565b82525050565b60006020820190506117656000830184611741565b92915050565b60006020828403121561178157611780611437565b5b600061178f84828501611517565b91505092915050565b600082825260208201905092915050565b60006117b48261157b565b6117be8185611798565b93506117ce818560208601611597565b6117d7816115ca565b840191505092915050565b6000610140820190506117f8600083018d6114d6565b818103602083015261180a818c6117a9565b9050818103604083015261181e818b6117a9565b90508181036060830152611832818a6117a9565b9050818103608083015261184681896117a9565b905081810360a083015261185a81886117a9565b905061186960c08301876114d6565b61187660e08301866114d6565b6118846101008301856114d6565b81810361012083015261189781846117a9565b90509b9a5050505050505050505050565b600080fd5b600080fd5b7f4e487b7100000000000000000000000000000000000000000000000000000000600052604160045260246000fd5b6118ea826115ca565b810181811067ffffffffffffffff82111715611909576119086118b2565b5b80604052505050565b600061191c61142d565b905061192882826118e1565b919050565b600067ffffffffffffffff821115611948576119476118b2565b5b611951826115ca565b9050602081019050919050565b82818337600083830152505050565b600061198061197b8461192d565b611912565b90508281526020810184848401111561199c5761199b6118ad565b5b6119a784828561195e565b509392505050565b600082601f8301126119c4576119c36118a8565b5b81356119d484826020860161196d565b91505092915050565b6000806000806000806000806000806101408b8d031215611a0157611a00611437565b5b6000611a0f8d828e01611517565b9a505060208b013567ffffffffffffffff811115611a3057611a2f61143c565b5b611a3c8d828e016119af565b99505060408b013567ffffffffffffffff811115611a5d57611a5c61143c565b5b611a698d828e016119af565b98505060608b013567ffffffffffffffff811115611a8a57611a8961143c565b5b611a968d828e016119af565b97505060808b013567ffffffffffffffff811115611ab757611ab661143c565b5b611ac38d828e016119af565b96505060a08b013567ffffffffffffffff811115611ae457611ae361143c565b5b611af08d828e016119af565b95505060c0611b018d828e01611517565b94505060e0611b128d828e01611517565b935050610100611b248d828e01611517565b9250506101208b013567ffffffffffffffff811115611b4657611b4561143c565b5b611b528d828e016119af565b9150509295989b9194979a5092959850565b7f4f6e6c7920746865206f776e65722063616e2063616c6c20746869732066756e60008201527f6374696f6e000000000000000000000000000000000000000000000000000000602082015250565b6000611bc0602583611798565b9150611bcb82611b64565b604082019050919050565b60006020820190508181036000830152611bef81611bb3565b9050919050565b600081905092915050565b50565b6000611c11600083611bf6565b9150611c1c82611c01565b600082019050919050565b6000611c3282611c04565b9150819050919050565b7f5769746864726177616c206661696c6564000000000000000000000000000000600082015250565b6000611c72601183611798565b9150611c7d82611c3c565b602082019050919050565b60006020820190508181036000830152611ca181611c65565b9050919050565b7f4e487b7100000000000000000000000000000000000000000000000000000000600052602260045260246000fd5b60006002820490506001821680611cef57607f821691505b60208210811415611d0357611d02611ca8565b5b50919050565b7f496e73756666696369656e742066756e647320746f207075726368617365207460008201527f686973206974656d000000000000000000000000000000000000000000000000602082015250565b6000611d65602883611798565b9150611d7082611d09565b604082019050919050565b60006020820190508181036000830152611d9481611d58565b9050919050565b7f54686973206974656d206973206f7574206f662073746f636b00000000000000600082015250565b6000611dd1601983611798565b9150611ddc82611d9b565b602082019050919050565b60006020820190508181036000830152611e0081611dc4565b9050919050565b7f4e487b7100000000000000000000000000000000000000000000000000000000600052601160045260246000fd5b6000611e41826114cc565b91507fffffffffffffffffffffffffffffffffffffffffffffffffffffffffffffffff821415611e7457611e73611e07565b5b600182019050919050565b6000611e8a826114cc565b91506000821415611e9e57611e9d611e07565b5b600182039050919050565b6000606082019050611ebe6000830186611741565b611ecb60208301856114d6565b611ed860408301846114d6565b949350505050565b60006060820190508181036000830152611efa81866117a9565b9050611f0960208301856114d6565b611f1660408301846114d6565b94935050505056fea264697066735822122021af22e2a841835e8870eaf907e87a19999dc211049c0b41c20ab9b0f5ae986764736f6c63430008090033",
  "linkReferences": {},
  "deployedLinkReferences": {}
}